{
  "contractName": "ArtistPiece",
  "abi": [
    {
      "inputs": [
        {
          "internalType": "string",
          "name": "authors_",
          "type": "string"
        },
        {
          "internalType": "string",
          "name": "name_",
          "type": "string"
        },
        {
          "internalType": "string",
          "name": "symbol_",
          "type": "string"
        }
      ],
      "stateMutability": "nonpayable",
      "type": "constructor"
    },
    {
      "anonymous": false,
      "inputs": [
        {
          "indexed": true,
          "internalType": "address",
          "name": "owner",
          "type": "address"
        },
        {
          "indexed": true,
          "internalType": "address",
          "name": "approved",
          "type": "address"
        },
        {
          "indexed": true,
          "internalType": "uint256",
          "name": "tokenId",
          "type": "uint256"
        }
      ],
      "name": "Approval",
      "type": "event"
    },
    {
      "anonymous": false,
      "inputs": [
        {
          "indexed": true,
          "internalType": "address",
          "name": "owner",
          "type": "address"
        },
        {
          "indexed": true,
          "internalType": "address",
          "name": "operator",
          "type": "address"
        },
        {
          "indexed": false,
          "internalType": "bool",
          "name": "approved",
          "type": "bool"
        }
      ],
      "name": "ApprovalForAll",
      "type": "event"
    },
    {
      "anonymous": false,
      "inputs": [
        {
          "indexed": true,
          "internalType": "address",
          "name": "from",
          "type": "address"
        },
        {
          "indexed": true,
          "internalType": "address",
          "name": "to",
          "type": "address"
        },
        {
          "indexed": true,
          "internalType": "uint256",
          "name": "tokenId",
          "type": "uint256"
        }
      ],
      "name": "Transfer",
      "type": "event"
    },
    {
      "inputs": [
        {
          "internalType": "address",
          "name": "to",
          "type": "address"
        },
        {
          "internalType": "uint256",
          "name": "tokenId",
          "type": "uint256"
        }
      ],
      "name": "approve",
      "outputs": [],
      "stateMutability": "nonpayable",
      "type": "function"
    },
    {
      "inputs": [
        {
          "internalType": "address",
          "name": "owner",
          "type": "address"
        }
      ],
      "name": "balanceOf",
      "outputs": [
        {
          "internalType": "uint256",
          "name": "",
          "type": "uint256"
        }
      ],
      "stateMutability": "view",
      "type": "function",
      "constant": true
    },
    {
      "inputs": [
        {
          "internalType": "uint256",
          "name": "tokenId",
          "type": "uint256"
        }
      ],
      "name": "getApproved",
      "outputs": [
        {
          "internalType": "address",
          "name": "",
          "type": "address"
        }
      ],
      "stateMutability": "view",
      "type": "function",
      "constant": true
    },
    {
      "inputs": [
        {
          "internalType": "address",
          "name": "owner",
          "type": "address"
        },
        {
          "internalType": "address",
          "name": "operator",
          "type": "address"
        }
      ],
      "name": "isApprovedForAll",
      "outputs": [
        {
          "internalType": "bool",
          "name": "",
          "type": "bool"
        }
      ],
      "stateMutability": "view",
      "type": "function",
      "constant": true
    },
    {
      "inputs": [],
      "name": "name",
      "outputs": [
        {
          "internalType": "string",
          "name": "",
          "type": "string"
        }
      ],
      "stateMutability": "view",
      "type": "function",
      "constant": true
    },
    {
      "inputs": [
        {
          "internalType": "uint256",
          "name": "tokenId",
          "type": "uint256"
        }
      ],
      "name": "ownerOf",
      "outputs": [
        {
          "internalType": "address",
          "name": "",
          "type": "address"
        }
      ],
      "stateMutability": "view",
      "type": "function",
      "constant": true
    },
    {
      "inputs": [
        {
          "internalType": "address",
          "name": "from",
          "type": "address"
        },
        {
          "internalType": "address",
          "name": "to",
          "type": "address"
        },
        {
          "internalType": "uint256",
          "name": "tokenId",
          "type": "uint256"
        }
      ],
      "name": "safeTransferFrom",
      "outputs": [],
      "stateMutability": "nonpayable",
      "type": "function"
    },
    {
      "inputs": [
        {
          "internalType": "address",
          "name": "from",
          "type": "address"
        },
        {
          "internalType": "address",
          "name": "to",
          "type": "address"
        },
        {
          "internalType": "uint256",
          "name": "tokenId",
          "type": "uint256"
        },
        {
          "internalType": "bytes",
          "name": "_data",
          "type": "bytes"
        }
      ],
      "name": "safeTransferFrom",
      "outputs": [],
      "stateMutability": "nonpayable",
      "type": "function"
    },
    {
      "inputs": [
        {
          "internalType": "address",
          "name": "operator",
          "type": "address"
        },
        {
          "internalType": "bool",
          "name": "approved",
          "type": "bool"
        }
      ],
      "name": "setApprovalForAll",
      "outputs": [],
      "stateMutability": "nonpayable",
      "type": "function"
    },
    {
      "inputs": [
        {
          "internalType": "bytes4",
          "name": "interfaceId",
          "type": "bytes4"
        }
      ],
      "name": "supportsInterface",
      "outputs": [
        {
          "internalType": "bool",
          "name": "",
          "type": "bool"
        }
      ],
      "stateMutability": "view",
      "type": "function",
      "constant": true
    },
    {
      "inputs": [],
      "name": "symbol",
      "outputs": [
        {
          "internalType": "string",
          "name": "",
          "type": "string"
        }
      ],
      "stateMutability": "view",
      "type": "function",
      "constant": true
    },
    {
      "inputs": [
        {
          "internalType": "address",
          "name": "from",
          "type": "address"
        },
        {
          "internalType": "address",
          "name": "to",
          "type": "address"
        },
        {
          "internalType": "uint256",
          "name": "tokenId",
          "type": "uint256"
        }
      ],
      "name": "transferFrom",
      "outputs": [],
      "stateMutability": "nonpayable",
      "type": "function"
    },
    {
      "inputs": [],
      "name": "authors",
      "outputs": [
        {
          "internalType": "string",
          "name": "",
          "type": "string"
        }
      ],
      "stateMutability": "view",
      "type": "function",
      "constant": true
    },
    {
      "inputs": [
        {
          "internalType": "uint256",
          "name": "tokenId",
          "type": "uint256"
        },
        {
          "internalType": "string",
          "name": "URI",
          "type": "string"
        }
      ],
      "name": "mint",
      "outputs": [
        {
          "internalType": "uint256",
          "name": "",
          "type": "uint256"
        }
      ],
      "stateMutability": "nonpayable",
      "type": "function"
    },
    {
      "inputs": [
        {
          "internalType": "uint256",
          "name": "tokenId",
          "type": "uint256"
        }
      ],
      "name": "tokenURI",
      "outputs": [
        {
          "internalType": "string",
          "name": "",
          "type": "string"
        }
      ],
      "stateMutability": "view",
      "type": "function",
      "constant": true
    }
  ],
  "bytecode": "0x60806040523480156200001157600080fd5b5060405162002c8038038062002c808339818101604052810190620000379190620002dc565b81818160009080519060200190620000519291906200008f565b5080600190805190602001906200006a9291906200008f565b5050508260069080519060200190620000859291906200008f565b50505050620003fa565b8280546200009d90620003c4565b90600052602060002090601f016020900481019282620000c157600085556200010d565b82601f10620000dc57805160ff19168380011785556200010d565b828001600101855582156200010d579182015b828111156200010c578251825591602001919060010190620000ef565b5b5090506200011c919062000120565b5090565b5b808211156200013b57600081600090555060010162000121565b5090565b6000604051905090565b600080fd5b600080fd5b600080fd5b600080fd5b6000601f19601f8301169050919050565b7f4e487b7100000000000000000000000000000000000000000000000000000000600052604160045260246000fd5b620001a8826200015d565b810181811067ffffffffffffffff82111715620001ca57620001c96200016e565b5b80604052505050565b6000620001df6200013f565b9050620001ed82826200019d565b919050565b600067ffffffffffffffff82111562000210576200020f6200016e565b5b6200021b826200015d565b9050602081019050919050565b60005b83811015620002485780820151818401526020810190506200022b565b8381111562000258576000848401525b50505050565b6000620002756200026f84620001f2565b620001d3565b90508281526020810184848401111562000294576200029362000158565b5b620002a184828562000228565b509392505050565b600082601f830112620002c157620002c062000153565b5b8151620002d38482602086016200025e565b91505092915050565b600080600060608486031215620002f857620002f762000149565b5b600084015167ffffffffffffffff8111156200031957620003186200014e565b5b6200032786828701620002a9565b935050602084015167ffffffffffffffff8111156200034b576200034a6200014e565b5b6200035986828701620002a9565b925050604084015167ffffffffffffffff8111156200037d576200037c6200014e565b5b6200038b86828701620002a9565b9150509250925092565b7f4e487b7100000000000000000000000000000000000000000000000000000000600052602260045260246000fd5b60006002820490506001821680620003dd57607f821691505b60208210811415620003f457620003f362000395565b5b50919050565b612876806200040a6000396000f3fe608060405234801561001057600080fd5b5060043610610112576000357c0100000000000000000000000000000000000000000000000000000000900480636352211e116100b4578063a22cb46511610083578063a22cb465146102b5578063b88d4fde146102d1578063c87b56dd146102ed578063e985e9c51461031d57610112565b80636352211e1461020757806370a082311461023757806377097fc81461026757806395d89b411461029757610112565b8063095ea7b3116100f0578063095ea7b31461019557806323b872dd146101b157806328411ae1146101cd57806342842e0e146101eb57610112565b806301ffc9a71461011757806306fdde0314610147578063081812fc14610165575b600080fd5b610131600480360381019061012c91906117d3565b61034d565b60405161013e919061181b565b60405180910390f35b61014f61042f565b60405161015c91906118cf565b60405180910390f35b61017f600480360381019061017a9190611927565b6104c1565b60405161018c9190611995565b60405180910390f35b6101af60048036038101906101aa91906119dc565b610546565b005b6101cb60048036038101906101c69190611a1c565b61065e565b005b6101d56106be565b6040516101e291906118cf565b60405180910390f35b61020560048036038101906102009190611a1c565b610750565b005b610221600480360381019061021c9190611927565b610770565b60405161022e9190611995565b60405180910390f35b610251600480360381019061024c9190611a6f565b610822565b60405161025e9190611aab565b60405180910390f35b610281600480360381019061027c9190611bfb565b6108da565b60405161028e9190611aab565b60405180910390f35b61029f6108f9565b6040516102ac91906118cf565b60405180910390f35b6102cf60048036038101906102ca9190611c83565b61098b565b005b6102eb60048036038101906102e69190611d64565b610b0c565b005b61030760048036038101906103029190611927565b610b6e565b60405161031491906118cf565b60405180910390f35b61033760048036038101906103329190611de7565b610c61565b604051610344919061181b565b60405180910390f35b60007f80ac58cd000000000000000000000000000000000000000000000000000000007bffffffffffffffffffffffffffffffffffffffffffffffffffffffff1916827bffffffffffffffffffffffffffffffffffffffffffffffffffffffff1916148061041857507f5b5e139f000000000000000000000000000000000000000000000000000000007bffffffffffffffffffffffffffffffffffffffffffffffffffffffff1916827bffffffffffffffffffffffffffffffffffffffffffffffffffffffff1916145b80610428575061042782610cf5565b5b9050919050565b60606000805461043e90611e56565b80601f016020809104026020016040519081016040528092919081815260200182805461046a90611e56565b80156104b75780601f1061048c576101008083540402835291602001916104b7565b820191906000526020600020905b81548152906001019060200180831161049a57829003601f168201915b5050505050905090565b60006104cc82610d5f565b61050b576040517f08c379a000000000000000000000000000000000000000000000000000000000815260040161050290611efa565b60405180910390fd5b6004600083815260200190815260200160002060009054906101000a900473ffffffffffffffffffffffffffffffffffffffff169050919050565b600061055182610770565b90508073ffffffffffffffffffffffffffffffffffffffff168373ffffffffffffffffffffffffffffffffffffffff1614156105c2576040517f08c379a00000000000000000000000000000000000000000000000000000000081526004016105b990611f8c565b60405180910390fd5b8073ffffffffffffffffffffffffffffffffffffffff166105e1610dcb565b73ffffffffffffffffffffffffffffffffffffffff161480610610575061060f8161060a610dcb565b610c61565b5b61064f576040517f08c379a00000000000000000000000000000000000000000000000000000000081526004016106469061201e565b60405180910390fd5b6106598383610dd3565b505050565b61066f610669610dcb565b82610e8c565b6106ae576040517f08c379a00000000000000000000000000000000000000000000000000000000081526004016106a5906120b0565b60405180910390fd5b6106b9838383610f6a565b505050565b6060600680546106cd90611e56565b80601f01602080910402602001604051908101604052809291908181526020018280546106f990611e56565b80156107465780601f1061071b57610100808354040283529160200191610746565b820191906000526020600020905b81548152906001019060200180831161072957829003601f168201915b5050505050905090565b61076b83838360405180602001604052806000815250610b0c565b505050565b6000806002600084815260200190815260200160002060009054906101000a900473ffffffffffffffffffffffffffffffffffffffff169050600073ffffffffffffffffffffffffffffffffffffffff168173ffffffffffffffffffffffffffffffffffffffff161415610819576040517f08c379a000000000000000000000000000000000000000000000000000000000815260040161081090612142565b60405180910390fd5b80915050919050565b60008073ffffffffffffffffffffffffffffffffffffffff168273ffffffffffffffffffffffffffffffffffffffff161415610893576040517f08c379a000000000000000000000000000000000000000000000000000000000815260040161088a906121d4565b60405180910390fd5b600360008373ffffffffffffffffffffffffffffffffffffffff1673ffffffffffffffffffffffffffffffffffffffff168152602001908152602001600020549050919050565b60006108e633846111c6565b6108f083836111e4565b82905092915050565b60606001805461090890611e56565b80601f016020809104026020016040519081016040528092919081815260200182805461093490611e56565b80156109815780601f1061095657610100808354040283529160200191610981565b820191906000526020600020905b81548152906001019060200180831161096457829003601f168201915b5050505050905090565b610993610dcb565b73ffffffffffffffffffffffffffffffffffffffff168273ffffffffffffffffffffffffffffffffffffffff161415610a01576040517f08c379a00000000000000000000000000000000000000000000000000000000081526004016109f890612240565b60405180910390fd5b8060056000610a0e610dcb565b73ffffffffffffffffffffffffffffffffffffffff1673ffffffffffffffffffffffffffffffffffffffff16815260200190815260200160002060008473ffffffffffffffffffffffffffffffffffffffff1673ffffffffffffffffffffffffffffffffffffffff16815260200190815260200160002060006101000a81548160ff0219169083151502179055508173ffffffffffffffffffffffffffffffffffffffff16610abb610dcb565b73ffffffffffffffffffffffffffffffffffffffff167f17307eab39ab6107e8899845ad3d59bd9653f200f220920489ca2b5937696c3183604051610b00919061181b565b60405180910390a35050565b610b1d610b17610dcb565b83610e8c565b610b5c576040517f08c379a0000000000000000000000000000000000000000000000000000000008152600401610b53906120b0565b60405180910390fd5b610b6884848484611258565b50505050565b6060610b7982610d5f565b610bb8576040517f08c379a0000000000000000000000000000000000000000000000000000000008152600401610baf906122d2565b60405180910390fd5b6000600760008481526020019081526020016000208054610bd890611e56565b80601f0160208091040260200160405190810160405280929190818152602001828054610c0490611e56565b8015610c515780601f10610c2657610100808354040283529160200191610c51565b820191906000526020600020905b815481529060010190602001808311610c3457829003601f168201915b5050505050905080915050919050565b6000600560008473ffffffffffffffffffffffffffffffffffffffff1673ffffffffffffffffffffffffffffffffffffffff16815260200190815260200160002060008373ffffffffffffffffffffffffffffffffffffffff1673ffffffffffffffffffffffffffffffffffffffff16815260200190815260200160002060009054906101000a900460ff16905092915050565b60007f01ffc9a7000000000000000000000000000000000000000000000000000000007bffffffffffffffffffffffffffffffffffffffffffffffffffffffff1916827bffffffffffffffffffffffffffffffffffffffffffffffffffffffff1916149050919050565b60008073ffffffffffffffffffffffffffffffffffffffff166002600084815260200190815260200160002060009054906101000a900473ffffffffffffffffffffffffffffffffffffffff1673ffffffffffffffffffffffffffffffffffffffff1614159050919050565b600033905090565b816004600083815260200190815260200160002060006101000a81548173ffffffffffffffffffffffffffffffffffffffff021916908373ffffffffffffffffffffffffffffffffffffffff160217905550808273ffffffffffffffffffffffffffffffffffffffff16610e4683610770565b73ffffffffffffffffffffffffffffffffffffffff167f8c5be1e5ebec7d5bd14f71427d1e84f3dd0314c0f7b2291e5b200ac8c7c3b92560405160405180910390a45050565b6000610e9782610d5f565b610ed6576040517f08c379a0000000000000000000000000000000000000000000000000000000008152600401610ecd90612364565b60405180910390fd5b6000610ee183610770565b90508073ffffffffffffffffffffffffffffffffffffffff168473ffffffffffffffffffffffffffffffffffffffff161480610f5057508373ffffffffffffffffffffffffffffffffffffffff16610f38846104c1565b73ffffffffffffffffffffffffffffffffffffffff16145b80610f615750610f608185610c61565b5b91505092915050565b8273ffffffffffffffffffffffffffffffffffffffff16610f8a82610770565b73ffffffffffffffffffffffffffffffffffffffff1614610fe0576040517f08c379a0000000000000000000000000000000000000000000000000000000008152600401610fd7906123f6565b60405180910390fd5b600073ffffffffffffffffffffffffffffffffffffffff168273ffffffffffffffffffffffffffffffffffffffff161415611050576040517f08c379a000000000000000000000000000000000000000000000000000000000815260040161104790612488565b60405180910390fd5b61105b8383836112b4565b611066600082610dd3565b6001600360008573ffffffffffffffffffffffffffffffffffffffff1673ffffffffffffffffffffffffffffffffffffffff16815260200190815260200160002060008282546110b691906124d7565b925050819055506001600360008473ffffffffffffffffffffffffffffffffffffffff1673ffffffffffffffffffffffffffffffffffffffff168152602001908152602001600020600082825461110d919061250b565b92505081905550816002600083815260200190815260200160002060006101000a81548173ffffffffffffffffffffffffffffffffffffffff021916908373ffffffffffffffffffffffffffffffffffffffff160217905550808273ffffffffffffffffffffffffffffffffffffffff168473ffffffffffffffffffffffffffffffffffffffff167fddf252ad1be2c89b69c2b068fc378daa952ba7f163c4a11628f55a4df523b3ef60405160405180910390a4505050565b6111e08282604051806020016040528060008152506112b9565b5050565b6111ed82610d5f565b61122c576040517f08c379a0000000000000000000000000000000000000000000000000000000008152600401611223906125d3565b60405180910390fd5b806007600084815260200190815260200160002090805190602001906112539291906116c4565b505050565b611263848484610f6a565b61126f84848484611314565b6112ae576040517f08c379a00000000000000000000000000000000000000000000000000000000081526004016112a590612665565b60405180910390fd5b50505050565b505050565b6112c383836114e3565b6112d06000848484611314565b61130f576040517f08c379a000000000000000000000000000000000000000000000000000000000815260040161130690612665565b60405180910390fd5b505050565b60006113358473ffffffffffffffffffffffffffffffffffffffff166116b1565b156114d6578373ffffffffffffffffffffffffffffffffffffffff1663150b7a0261135e610dcb565b8786866040518563ffffffff167c010000000000000000000000000000000000000000000000000000000002815260040161139c94939291906126da565b602060405180830381600087803b1580156113b657600080fd5b505af19250505080156113e757506040513d601f19601f820116820180604052508101906113e4919061273b565b60015b61146a573d8060008114611417576040519150601f19603f3d011682016040523d82523d6000602084013e61141c565b606091505b50600081511415611462576040517f08c379a000000000000000000000000000000000000000000000000000000000815260040161145990612665565b60405180910390fd5b805181602001fd5b63150b7a027c0100000000000000000000000000000000000000000000000000000000027bffffffffffffffffffffffffffffffffffffffffffffffffffffffff1916817bffffffffffffffffffffffffffffffffffffffffffffffffffffffff1916149150506114db565b600190505b949350505050565b600073ffffffffffffffffffffffffffffffffffffffff168273ffffffffffffffffffffffffffffffffffffffff161415611553576040517f08c379a000000000000000000000000000000000000000000000000000000000815260040161154a906127b4565b60405180910390fd5b61155c81610d5f565b1561159c576040517f08c379a000000000000000000000000000000000000000000000000000000000815260040161159390612820565b60405180910390fd5b6115a8600083836112b4565b6001600360008473ffffffffffffffffffffffffffffffffffffffff1673ffffffffffffffffffffffffffffffffffffffff16815260200190815260200160002060008282546115f8919061250b565b92505081905550816002600083815260200190815260200160002060006101000a81548173ffffffffffffffffffffffffffffffffffffffff021916908373ffffffffffffffffffffffffffffffffffffffff160217905550808273ffffffffffffffffffffffffffffffffffffffff16600073ffffffffffffffffffffffffffffffffffffffff167fddf252ad1be2c89b69c2b068fc378daa952ba7f163c4a11628f55a4df523b3ef60405160405180910390a45050565b600080823b905060008111915050919050565b8280546116d090611e56565b90600052602060002090601f0160209004810192826116f25760008555611739565b82601f1061170b57805160ff1916838001178555611739565b82800160010185558215611739579182015b8281111561173857825182559160200191906001019061171d565b5b509050611746919061174a565b5090565b5b8082111561176357600081600090555060010161174b565b5090565b6000604051905090565b600080fd5b600080fd5b60007fffffffff0000000000000000000000000000000000000000000000000000000082169050919050565b6117b08161177b565b81146117bb57600080fd5b50565b6000813590506117cd816117a7565b92915050565b6000602082840312156117e9576117e8611771565b5b60006117f7848285016117be565b91505092915050565b60008115159050919050565b61181581611800565b82525050565b6000602082019050611830600083018461180c565b92915050565b600081519050919050565b600082825260208201905092915050565b60005b83811015611870578082015181840152602081019050611855565b8381111561187f576000848401525b50505050565b6000601f19601f8301169050919050565b60006118a182611836565b6118ab8185611841565b93506118bb818560208601611852565b6118c481611885565b840191505092915050565b600060208201905081810360008301526118e98184611896565b905092915050565b6000819050919050565b611904816118f1565b811461190f57600080fd5b50565b600081359050611921816118fb565b92915050565b60006020828403121561193d5761193c611771565b5b600061194b84828501611912565b91505092915050565b600073ffffffffffffffffffffffffffffffffffffffff82169050919050565b600061197f82611954565b9050919050565b61198f81611974565b82525050565b60006020820190506119aa6000830184611986565b92915050565b6119b981611974565b81146119c457600080fd5b50565b6000813590506119d6816119b0565b92915050565b600080604083850312156119f3576119f2611771565b5b6000611a01858286016119c7565b9250506020611a1285828601611912565b9150509250929050565b600080600060608486031215611a3557611a34611771565b5b6000611a43868287016119c7565b9350506020611a54868287016119c7565b9250506040611a6586828701611912565b9150509250925092565b600060208284031215611a8557611a84611771565b5b6000611a93848285016119c7565b91505092915050565b611aa5816118f1565b82525050565b6000602082019050611ac06000830184611a9c565b92915050565b600080fd5b600080fd5b7f4e487b7100000000000000000000000000000000000000000000000000000000600052604160045260246000fd5b611b0882611885565b810181811067ffffffffffffffff82111715611b2757611b26611ad0565b5b80604052505050565b6000611b3a611767565b9050611b468282611aff565b919050565b600067ffffffffffffffff821115611b6657611b65611ad0565b5b611b6f82611885565b9050602081019050919050565b82818337600083830152505050565b6000611b9e611b9984611b4b565b611b30565b905082815260208101848484011115611bba57611bb9611acb565b5b611bc5848285611b7c565b509392505050565b600082601f830112611be257611be1611ac6565b5b8135611bf2848260208601611b8b565b91505092915050565b60008060408385031215611c1257611c11611771565b5b6000611c2085828601611912565b925050602083013567ffffffffffffffff811115611c4157611c40611776565b5b611c4d85828601611bcd565b9150509250929050565b611c6081611800565b8114611c6b57600080fd5b50565b600081359050611c7d81611c57565b92915050565b60008060408385031215611c9a57611c99611771565b5b6000611ca8858286016119c7565b9250506020611cb985828601611c6e565b9150509250929050565b600067ffffffffffffffff821115611cde57611cdd611ad0565b5b611ce782611885565b9050602081019050919050565b6000611d07611d0284611cc3565b611b30565b905082815260208101848484011115611d2357611d22611acb565b5b611d2e848285611b7c565b509392505050565b600082601f830112611d4b57611d4a611ac6565b5b8135611d5b848260208601611cf4565b91505092915050565b60008060008060808587031215611d7e57611d7d611771565b5b6000611d8c878288016119c7565b9450506020611d9d878288016119c7565b9350506040611dae87828801611912565b925050606085013567ffffffffffffffff811115611dcf57611dce611776565b5b611ddb87828801611d36565b91505092959194509250565b60008060408385031215611dfe57611dfd611771565b5b6000611e0c858286016119c7565b9250506020611e1d858286016119c7565b9150509250929050565b7f4e487b7100000000000000000000000000000000000000000000000000000000600052602260045260246000fd5b60006002820490506001821680611e6e57607f821691505b60208210811415611e8257611e81611e27565b5b50919050565b7f4552433732313a20617070726f76656420717565727920666f72206e6f6e657860008201527f697374656e7420746f6b656e0000000000000000000000000000000000000000602082015250565b6000611ee4602c83611841565b9150611eef82611e88565b604082019050919050565b60006020820190508181036000830152611f1381611ed7565b9050919050565b7f4552433732313a20617070726f76616c20746f2063757272656e74206f776e6560008201527f7200000000000000000000000000000000000000000000000000000000000000602082015250565b6000611f76602183611841565b9150611f8182611f1a565b604082019050919050565b60006020820190508181036000830152611fa581611f69565b9050919050565b7f4552433732313a20617070726f76652063616c6c6572206973206e6f74206f7760008201527f6e6572206e6f7220617070726f76656420666f7220616c6c0000000000000000602082015250565b6000612008603883611841565b915061201382611fac565b604082019050919050565b6000602082019050818103600083015261203781611ffb565b9050919050565b7f4552433732313a207472616e736665722063616c6c6572206973206e6f74206f60008201527f776e6572206e6f7220617070726f766564000000000000000000000000000000602082015250565b600061209a603183611841565b91506120a58261203e565b604082019050919050565b600060208201905081810360008301526120c98161208d565b9050919050565b7f4552433732313a206f776e657220717565727920666f72206e6f6e657869737460008201527f656e7420746f6b656e0000000000000000000000000000000000000000000000602082015250565b600061212c602983611841565b9150612137826120d0565b604082019050919050565b6000602082019050818103600083015261215b8161211f565b9050919050565b7f4552433732313a2062616c616e636520717565727920666f7220746865207a6560008201527f726f206164647265737300000000000000000000000000000000000000000000602082015250565b60006121be602a83611841565b91506121c982612162565b604082019050919050565b600060208201905081810360008301526121ed816121b1565b9050919050565b7f4552433732313a20617070726f766520746f2063616c6c657200000000000000600082015250565b600061222a601983611841565b9150612235826121f4565b602082019050919050565b600060208201905081810360008301526122598161221d565b9050919050565b7f4552433732314d657461646174613a2055524920717565727920666f72206e6f60008201527f6e6578697374656e7420746f6b656e0000000000000000000000000000000000602082015250565b60006122bc602f83611841565b91506122c782612260565b604082019050919050565b600060208201905081810360008301526122eb816122af565b9050919050565b7f4552433732313a206f70657261746f7220717565727920666f72206e6f6e657860008201527f697374656e7420746f6b656e0000000000000000000000000000000000000000602082015250565b600061234e602c83611841565b9150612359826122f2565b604082019050919050565b6000602082019050818103600083015261237d81612341565b9050919050565b7f4552433732313a207472616e73666572206f6620746f6b656e2074686174206960008201527f73206e6f74206f776e0000000000000000000000000000000000000000000000602082015250565b60006123e0602983611841565b91506123eb82612384565b604082019050919050565b6000602082019050818103600083015261240f816123d3565b9050919050565b7f4552433732313a207472616e7366657220746f20746865207a65726f2061646460008201527f7265737300000000000000000000000000000000000000000000000000000000602082015250565b6000612472602483611841565b915061247d82612416565b604082019050919050565b600060208201905081810360008301526124a181612465565b9050919050565b7f4e487b7100000000000000000000000000000000000000000000000000000000600052601160045260246000fd5b60006124e2826118f1565b91506124ed836118f1565b925082821015612500576124ff6124a8565b5b828203905092915050565b6000612516826118f1565b9150612521836118f1565b9250827fffffffffffffffffffffffffffffffffffffffffffffffffffffffffffffffff03821115612556576125556124a8565b5b828201905092915050565b7f4552433732314d657461646174613a2055524920736574206f66206e6f6e657860008201527f697374656e7420746f6b656e0000000000000000000000000000000000000000602082015250565b60006125bd602c83611841565b91506125c882612561565b604082019050919050565b600060208201905081810360008301526125ec816125b0565b9050919050565b7f4552433732313a207472616e7366657220746f206e6f6e20455243373231526560008201527f63656976657220696d706c656d656e7465720000000000000000000000000000602082015250565b600061264f603283611841565b915061265a826125f3565b604082019050919050565b6000602082019050818103600083015261267e81612642565b9050919050565b600081519050919050565b600082825260208201905092915050565b60006126ac82612685565b6126b68185612690565b93506126c6818560208601611852565b6126cf81611885565b840191505092915050565b60006080820190506126ef6000830187611986565b6126fc6020830186611986565b6127096040830185611a9c565b818103606083015261271b81846126a1565b905095945050505050565b600081519050612735816117a7565b92915050565b60006020828403121561275157612750611771565b5b600061275f84828501612726565b91505092915050565b7f4552433732313a206d696e7420746f20746865207a65726f2061646472657373600082015250565b600061279e602083611841565b91506127a982612768565b602082019050919050565b600060208201905081810360008301526127cd81612791565b9050919050565b7f4552433732313a20746f6b656e20616c7265616479206d696e74656400000000600082015250565b600061280a601c83611841565b9150612815826127d4565b602082019050919050565b60006020820190508181036000830152612839816127fd565b905091905056fea2646970667358221220ec55931c3f6ab37b9dec905f9f972b32ca59a18922b194ff2bb08ae1989dea1064736f6c63430008090033",
  "immutableReferences": {},
  "source": "// SPDX-License-Identifier: MIT\r\npragma solidity ^0.8.0;\r\n\r\nimport \"../@openzeppelin/contracts/token/ERC721/ERC721.sol\";\r\n\r\n/**\r\n * @dev NFT to reperesent an artists work\r\n */\r\ncontract ArtistPiece is ERC721 {\r\n    string private _authors;\r\n\r\n    mapping(uint256 => string) private _tokenURIs;\r\n\r\n    /**\r\n     * @dev Give collection a name, symbol, and authors\r\n     */\r\n    constructor(string memory authors_, string memory name_, string memory symbol_) ERC721(name_, symbol_) {\r\n        _authors = authors_;\r\n    }\r\n\r\n    /**\r\n     * @dev get authors\r\n     */\r\n    function authors() public view virtual returns (string memory) {\r\n        return _authors;\r\n    }\r\n\r\n    /**\r\n     * @dev randomly generated token id, implement minter role\r\n     */\r\n    function mint(uint256 tokenId, string memory URI) public returns (uint256) {\r\n        //require(hasRole(MINTER_ROLE, _msgSender()), \"ERC721PresetMinterPauserAutoId: must have minter role to mint\");\r\n        \r\n        _safeMint(msg.sender, tokenId);\r\n        _setTokenURI(tokenId, URI);\r\n        \r\n        return tokenId;\r\n    }\r\n\r\n    /**\r\n     * @dev See {IERC721Metadata-tokenURI}.\r\n     */\r\n    function tokenURI(uint256 tokenId) public view override returns (string memory) {\r\n        require(_exists(tokenId), \"ERC721Metadata: URI query for nonexistent token\");\r\n\r\n        string memory _tokenURI = _tokenURIs[tokenId];\r\n\r\n        return _tokenURI;\r\n    }\r\n\r\n    /**\r\n     * @dev Sets `_tokenURI` as the tokenURI of `tokenId`.\r\n     *\r\n     * Requirements:\r\n     *\r\n     * - `tokenId` must exist.\r\n     */\r\n    function _setTokenURI(uint256 tokenId, string memory _tokenURI) internal virtual {\r\n        require(_exists(tokenId), \"ERC721Metadata: URI set of nonexistent token\");\r\n        _tokenURIs[tokenId] = _tokenURI;\r\n    }\r\n}",
  "sourcePath": "C:\\Users\\Ethan Davis\\Documents\\Files\\ETHOnline\\nft-platform\\src\\contracts\\ArtistPiece.sol",
  "compiler": {
    "name": "solc",
    "version": "0.8.9+commit.e5eed63a.Emscripten.clang"
  },
  "schemaVersion": "3.4.3",
  "updatedAt": "2021-10-18T18:03:36.489Z",
  "networkType": "ethereum",
  "devdoc": {
    "details": "NFT to reperesent an artists work",
    "kind": "dev",
    "methods": {
      "approve(address,uint256)": {
        "details": "See {IERC721-approve}."
      },
      "authors()": {
        "details": "get authors"
      },
      "balanceOf(address)": {
        "details": "See {IERC721-balanceOf}."
      },
      "constructor": {
        "details": "Give collection a name, symbol, and authors"
      },
      "getApproved(uint256)": {
        "details": "See {IERC721-getApproved}."
      },
      "isApprovedForAll(address,address)": {
        "details": "See {IERC721-isApprovedForAll}."
      },
      "mint(uint256,string)": {
        "details": "randomly generated token id, implement minter role"
      },
      "name()": {
        "details": "See {IERC721Metadata-name}."
      },
      "ownerOf(uint256)": {
        "details": "See {IERC721-ownerOf}."
      },
      "safeTransferFrom(address,address,uint256)": {
        "details": "See {IERC721-safeTransferFrom}."
      },
      "safeTransferFrom(address,address,uint256,bytes)": {
        "details": "See {IERC721-safeTransferFrom}."
      },
      "setApprovalForAll(address,bool)": {
        "details": "See {IERC721-setApprovalForAll}."
      },
      "supportsInterface(bytes4)": {
        "details": "See {IERC165-supportsInterface}."
      },
      "symbol()": {
        "details": "See {IERC721Metadata-symbol}."
      },
      "tokenURI(uint256)": {
        "details": "See {IERC721Metadata-tokenURI}."
      },
      "transferFrom(address,address,uint256)": {
        "details": "See {IERC721-transferFrom}."
      }
    },
    "version": 1
  },
  "userdoc": {
    "kind": "user",
    "methods": {},
    "version": 1
  }
}